:100000000C9462000C947F000C947F000C947F0091
:100010000C947F000C947F000C947F000C947F0064
:100020000C947F000C947F000C947F000C947F0054
:100030000C947F000C947F000C947F000C947F0044
:100040000C94FF000C947F000C947F000C947F00B4
:100050000C947F000C947F000C947F000C947F0024
:100060000C947F000C947F00000000002500280005
:100070002B0000000000240027002A0000000000E0
:1000800023002600290004040404040404040202DA
:100090000202020203030303030301020408102007
:1000A0004080010204081020010204081020000012
:1000B0000008000201000003040700000000000027
:1000C0000000120211241FBECFEFD8E0DEBFCDBF6B
:1000D00021E0A0E0B1E001C01D92AB30B207E1F732
:1000E00010E0C2E6D0E004C02197FE010E94170292
:1000F000C136D107C9F70E9449010C941D020C9426
:100100000000833081F028F4813099F08230A1F032
:1001100008958730A9F08830B9F08430D1F4809107
:1001200080008F7D03C0809180008F778093800056
:10013000089584B58F7702C084B58F7D84BD0895FE
:100140008091B0008F7703C08091B0008F7D809345
:10015000B00008951F93CF93DF93282F30E0F9016B
:10016000E255FF4F8491F901E656FF4FD491F90112
:10017000EA57FF4FC491CC23C9F0162F81110E947A
:100180008100EC2FF0E0EE0FFF1FE859FF4FA59123
:10019000B4918FB7F894111105C09C91ED2FE095A3
:1001A000E92302C0EC91ED2BEC938FBFDF91CF914F
:1001B0001F9108953FB7F894809105019091060131
:1001C000A0910701B091080126B5A89B05C02F3F5B
:1001D00019F00196A11DB11D3FBFBA2FA92F982F6D
:1001E0008827820F911DA11DB11DBC01CD0142E0E8
:1001F000660F771F881F991F4A95D1F708951F92A0
:100200000F920FB60F9211242F933F938F939F93CA
:10021000AF93BF938091010190910201A0910301DE
:10022000B09104013091000123E0230F2D3720F419
:100230000196A11DB11D05C026E8230F0296A11D40
:10024000B11D209300018093010190930201A093BE
:100250000301B09304018091050190910601A091E2
:100260000701B09108010196A11DB11D8093050100
:1002700090930601A0930701B0930801BF91AF913D
:100280009F918F913F912F910F900FBE0F901F90D4
:100290001895789484B5826084BD84B5816084BDEE
:1002A00085B5826085BD85B5816085BD80916E0014
:1002B000816080936E001092810080918100826045
:1002C0008093810080918100816080938100809182
:1002D00080008160809380008091B1008460809371
:1002E000B1008091B00081608093B00080917A006D
:1002F000846080937A0080917A00826080937A0093
:1003000080917A00816080937A0080917A00806881
:1003100080937A001092C100CAE9D0E0FE012491D6
:1003200006E810E0F8018491882399F090E0880FA6
:10033000991FFC01EE58FF4FA591B491FC01E859BB
:10034000FF4F859194918FB7F8949C91292B2C9312
:100350008FBFFE012491F80184918823C9F090E0B9
:10036000880F991FFC01EE58FF4FA591B491885951
:100370009F4FFC01459154913FB7F8949C91822F77
:10038000809598239C93FA019081892380833FBFB5
:100390009EEAE92E90E0F92E20E0C22E20E0D22E37
:1003A000F7018491FE01A490F801B490BB2081F183
:1003B00081110E948100EB2DF0E0EE0FFF1FCF01B5
:1003C00084589F4FFC01A591B4918C91A82201F112
:1003D0008091090190910A011816190624F41092CF
:1003E0000A01109209010E94DA008091090190919E
:1003F0000A01892B11F060E001C061E080E00E94F9
:10040000AA00C114D10409F4CBCF0E940000C8CFC8
:100410008091090190910A01019690930A018093BD
:100420000901D6CF10920A01109209010895EE0F2A
:0E043000FF1F0590F491E02D0994F894FFCF82
:00000001FF
